:020000000C945E
:100002003A000C9400000C9400000C9400000C9434
:1000120000000C9400000C9400000C9400000C945E
:1000220000000C9467000C9400000C9400000C94E7
:1000320000000C9400000C9400000C9400000C943E
:1000420000000C9400000C9400000C9400000C942E
:10005200000080A0C0E0000001002D4E414E00498A
:100062004E460000020004005800010060015A00E0
:100072000000F894EE27ECBBF1E0FBBFEBBFE5BF5D
:100082008DE0A2E0BB27ED938A95E9F780E094E04A
:10009200A0E6ED930197E9F7E6E6F0E08591959108
:1000A200009761F0A591B59105901590BF01F001FF
:1000B20005900D920197E1F7FB01F0CFEFE5EDBF5F
:1000C200E4E0EEBFC0E6D1E00C947300EA93FA9349
:1000D200EFB7EA93F20131962F01E991EFBFF9915F
:1000E200E9911895E0E0EABBEBBBE7BBE8BBE4BBF8
:1000F200E5BBE1BBE2BBE5E0E3BFE0E0E2BFECBFB2
:10010200EFBDE6E0EEBDE0E0EDBDECBDE7BDE6BD76
:10011200EBBDEABDE9BDE8BDE2BDE5BDE4BDE3BDC1
:10012200E1E0E9BFE0E0E5BFE4BFEAB9E0E8E8B951
:10013200E0E0E0BFE6B9EDB9E6BFA8E075D078949B
:10014200E4E0F0E0E415F50579F423973CD0ECB552
:10015200F0E0FA93EA93DE0112960E943C01DE017E
:1001620052D0442455242396EBCFFFCFAA93EBB36E
:10017200EF70AE2FE881E07FEA2BEBBB81E08A953E
:10018200F1F7DA9A82E08A95F1F7DA9882E08A95B5
:10019200F1F76FC0AA93A881E9DFE881E295E883CD
:1001A200A881E4DF81E18A95F1F763C0AA93E8812F
:1001B200F0E0EC5AFF4FE491A981AE0FEBDF7980BA
:1001C200688022960895A2E00E946A01ACE0E2DF14
:1001D200A1E00E946A01E0E06E2E7E2E0895AA93AD
:1001E200A881AA3011F0791440F0E0E0EA93639418
:1001F200A62DDCDFA881AA30E1F17394C09AA88110
:10020200C9DFC09836C0BA93AA931A93A981BA815A
:10021200ED91A983BA831E2FE03019F0A12FDFDF01
:10022200F5CF188123960895AA93EAB3E06FEABB4B
:10023200D29AB89AD19ADA98C098D9989880A4E1BB
:10024200B0E00E9477010E9470010E9470010E943A
:100252007001A0E28BDF81E28A95F1F7A4E29ADFD6
:10026200A9E098DFA0E296DFACE094DFA6E092DF9F
:10027200AADF21960895BA93AA93A991B991E99117
:10028200F99130962AF4E095F09531966DE26D93EE
:10029200E89480E197E20DD088EE93E00AD084E6FC
:1002A200992707D08AE005D06E2F10D066276C936D
:1002B20008956627E817F90720F06395E81BF90B04
:1002C200C9F7662311F416F008956894605D6D9382
:1002D20008950E94CB00A3E0B0E00C947701A0E364
:1002E2000E94B70081E28A95F1F70895109639F0DD
:1002F2008AEF90E00197F1F7A8951197C9F7089551
:00000001FF
