:0C0000000C942F000C945C000C94000089
:10000C000C9400000C9400000C9400000C94000064
:10001C000C9400000C9400000C9400000C94000054
:10002C000C9400000C9400000C9400000C94000044
:10003C000C9400000C9400000C9400000C94000034
:10004C000C9400000C94000000000200040054000A
:10005C000000F894EE27ECBBF1E0FBBFEBBFE5BF73
:10006C008DE0A2E0BB27ED938A95E9F780E094E060
:10007C00A0E6ED930197E9F7E6E5F0E0859195911F
:10008C00009761F0A591B59105901590BF01F00115
:10009C0005900D920197E1F7FB01F0CFEFE5EDBF75
:1000AC00E4E0EEBFC0E6D1E00C946B00EA93EFB74E
:1000BC00EA9340945094E42DE03011F4D89801C0A8
:1000CC00D89AE991EFBFE9911895E1E0EABBE0E03D
:1000DC00EBBBE7BBE8BBE4BBE5BBE1BBE8E0E2BBE9
:1000EC00E0E0E3BFE2BFECBFEFBDEEBDEDBDECBDAC
:1000FC00E7BDE6BDEBBDEABDE9BDE8BDE2BDE5BDD2
:10010C00E4BDE3BDE9BFEBB7E064EBBFE3E0E5BF03
:10011C00E0E0E4BFE0E4EABFE0E0EAB9E0E8E8B937
:10012C00E0E0E0BFE6B9EDB9E6BF7894FFCFFFCFD2
:00000001FF
