:0E0000000C9445000C948D000C9400000C94A0
:10000E0000000C9400000C9400000C9400000C9462
:10001E0000000C9400000C9400000C9400000C9452
:10002E0000000C9400000C9400000C9400000C9442
:10003E0000000C9400000C9400000C9400000C9432
:10004E0000000C94000000000000757365722069BA
:10005E00643A200070617373776F72643A20000007
:10006E0080C00400040054000A00600158000B0018
:10007E006A016200020075016E000000F894EE271E
:10008E00ECBBF1E0FBBFEBBFE5BF8DE0A2E0BB2711
:10009E00ED938A95E9F780E094E0A0E6ED93019761
:1000AE00E9F7E0E7F0E085919591009761F0A59171
:1000BE00B59105901590BF01F00105900D92019735
:1000CE00E1F7FB01F0CFEFE5EDBFE4E0EEBFC0E6F8
:1000DE00D1E00C941A01AA936A92A1E015D1A881DD
:1000EE002AD1F30131963F010C94F301002406143A
:1000FE0007041CF4F301319702C0E0E0F0E03F0189
:10010E006A92A1E001D1A0E016D108950A921A9246
:10011E00FA926A937A938A939A93AA93BA93EA93EA
:10012E00FA93EFB7EA931A9310E0F201E130A0E0F0
:10013E00FA0799F437D01E2F133221F4E2E0F0E0E3
:10014E002F010AC01A3211F4D1DF06C0F301E80DF7
:10015E00F91D1083A12FBFDF16C0E330A0E0FA0710
:10016E0091F420D01E2F133221F4E4E0F0E02F01A1
:10017E000AC01A3211F4BADF06C0F301EA0DFB1DF4
:10018E001083AAE2A8DF1991E991EFBFF991E991E5
:10019E00B991A9919991899179916991F990199053
:1001AE00099018951A9310E0A898A99AAA9A989966
:1001BE000EC09B9902C011E30AC09C9902C014E3C1
:1001CE0006C09D9902C017E302C09E9B1AE2A89A30
:1001DE00A998AA9A99990EC09B9902C012E30AC0D7
:1001EE009C9902C015E306C09D9902C018E302C097
:1001FE009E9B10E3A89AA99AAA989A990EC09B99C9
:10020E0002C013E30AC09C9902C016E306C09D9972
:10021E0002C019E302C09E9B13E2A898A998AA985F
:10022E00E12F19910895E0E0EABBEBBBE7BBE8BB19
:10023E00E7E0E4BBE8E7E5BBE0E0E1BBE2BBE3BF40
:10024E00E2BFECBFEFBDEEBDEDBDECBDE7BDE6BD63
:10025E00EBBDEABDE9BDE8BDE2BDE5BDE4BDE3BD74
:10026E00E9BFEBB7E064EBBFE3E0E5BFE0E0E4BF7E
:10027E00E0E4EABFE0E0EAB9E0E8E8B9E0E0E0BFD8
:10028E00E6B9EDB9E6BFA0E17ED07894F201EF3F7A
:10029E00AFEFFA07B9F0309741F443D0A0E6B1E0E2
:1002AE009DD0E1E0F0E02F010DC0E230A0E0FA07B2
:1002BE0049F437D0AAE6B1E091D0E3E0F0E02F01A7
:1002CE0066247724E3CFFFCFAA93EBB3EF70AE2F64
:1002DE00E881E07FEA2BEBBB83E08A95F1F7DB9AAE
:1002EE0083E08A95F1F7DB9883E08A95F1F774C085
:1002FE00AA93A881E9DFE881E295E883A881E4DF8B
:10030E0081E28A95F1F768C0AA93E881F0E0EB5894
:10031E00FE4FE081A981AE0FEBDFD980C880229617
:10032E000895A2E060D0ACE0E3DFA1E05CD0E0E0B5
:10033E00CE2EDE2E0895AA93A881AA3021F0E09148
:10034E007901DE1648F0E0E0EA93C394AC2DDCDFD1
:10035E00A881AA3009F440C0D394D99AA881C8DFE5
:10036E00D9983AC0BA93AA931A93A981BA81ED91FA
:10037E00A983BA831E2FE03019F0A12FDCDFF5CF51
:10038E00188123960895AA93EAB3E06FEABBD39A35
:10039E00D19AD29ADB98D998DA98E881E0937901CC
:1003AE00E058E0937701E881E054E0937801A4E10E
:1003BE00B0E00E9405021CD01BD01AD0A0E284DF50
:1003CE0083E48A95F1F7A8E293DFA4E091DFA5E834
:1003DE008FDFA6E08DDFA5DF21960895C3DFE0E075
:1003EE00EA93A1E091CF84DFA3E0B0E00C94050284
:1003FE00A0E36ADF83E48A95F1F70895109639F049
:10040E0084EF91E00197F1F7A8951197C9F7089538
:00000001FF
