:0C0000000C945F000C948C000C94000029
:10000C000C9400000C9400000C9400000C94000064
:10001C000C9400000C9400000C9400000C94000054
:10002C000C9400000C9400000C9400000C94000044
:10003C000C9400000C9400000C9400000C94000034
:10004C000C9400000C9400003100340037002A009E
:10005C003200350038003000330036003900230000
:10006C0080C00200600154000200620156000200D0
:10007C0064015800020066015A00020068015C002D
:10008C0002006A015E0002006C01600002006E0159
:10009C00620002007001640002007201660002003E
:1000AC0074016800020076016A00020078016C009D
:1000BC000000F894EE27ECBBF1E0FBBFEBBFE5BF13
:1000CC008DE0A2E0BB27ED938A95E9F780E094E000
:1000DC00A0E6ED930197E9F7EEE6F0E085919591B6
:1000EC00009761F0A591B59105901590BF01F001B5
:1000FC0005900D920197E1F7FB01F0CFEFE5EDBF15
:10010C00E4E0EEBFC0E6D1E00C94F5000A921A923E
:10011C00FA926A937A938A939A93AA93BA93EA93EC
:10012C00FA93EFB7EA93A898A99AAA9A989914C047
:10013C009B9903C0A0E6B1E00EC09C9903C0A2E657
:10014C00B1E009C09D9903C0A4E6B1E004C09E993A
:10015C0003C0A6E6B1E0C4D0A89AA998AA9A999926
:10016C0014C09B9903C0A8E6B1E00EC09C9903C0D3
:10017C00AAE6B1E009C09D9903C0ACE6B1E004C0A9
:10018C009E9903C0AEE6B1E0ABD0A89AA99AAA9802
:10019C009A9914C09B9903C0A0E7B1E00EC09C993A
:1001AC0003C0A2E7B1E009C09D9903C0A4E7B1E088
:1001BC0004C09E9903C0A6E7B1E092D0A898A99874
:1001CC00AA98E991EFBFF991E991B991A991999107
:1001DC00899179916991F990199009901895E0E0BD
:1001EC00EABBEBBBE7BBE8BBE7E0E4BBE8E7E5BB9E
:1001FC00E0E0E1BBE2BBE3BFE2BFECBFEFBDEEBDB5
:10020C00EDBDECBDE7BDE6BDEBBDEABDE9BDE8BDAE
:10021C00E2BDE5BDE4BDE3BDE9BFEBB7E064EBBF18
:10022C00E3E0E5BFE0E0E4BFE0E4EABFE0E0EAB928
:10023C00E0E8E8B9E0E0E0BFE6B9EDB9E6BFA0E17F
:10024C0060D07894FFCFFFCFAA93EBB3EF70AE2FB3
:10025C00E881E07FEA2BEBBB83E08A95F1F7DB9A30
:10026C0083E08A95F1F7DB9883E08A95F1F771C00A
:10027C00AA93A881E9DFE881E295E883A881E4DF0D
:10028C0081E28A95F1F765C0AA93E881F0E0E8581D
:10029C00FE4FE081A981AE0FEBDF5980488022969A
:1002AC000895A2E058D0ACE0E3DFA1E054D0E0E048
:1002BC004E2E5E2E0895AA93A881AA3011F05714E1
:1002CC0048F0E0E0EA934394A42DDEDFA881AA3045
:1002DC0009F43FC05394D99AA881CADFD99839C080
:1002EC00BA93AA931A93A981BA81ED91A983BA837F
:1002FC001E2FE03019F0A12FDEDFF5CF18812396E9
:10030C000895AA93EAB3E06FEABBD39AD19AD29A32
:10031C00DB98D998DA987880E881E058E0937A01F4
:10032C00E881E054E0937B01A4E1B0E00E94BC01C1
:10033C0017D016D015D0A0E287DF83E48A95F1F7A9
:10034C00A8E296DFA4E094DFA5E892DFA6E090DFB8
:10035C00A8DF219608958CDFA3E0B0E00C94BC01DB
:10036C00A0E372DF83E48A95F1F70895109639F0D3
:10037C0084EF91E00197F1F7A8951197C9F70895CB
:00000001FF
