:0C0000000C9491000C94DD000C940000A6
:10000C000C9400000C9400000C9400000C94000064
:10001C000C9400000C9400000C9400000C94000054
:10002C000C9400000C9400000C9400000C94000044
:10003C000C9400000C9400000C9400000C94000034
:10004C000C9400000C940000050000000100757376
:10005C0065722069643A200070617373776F726403
:10006C003A200030206F70656E003120616464208E
:10007C007573657200322064656C2075736572004F
:10008C00332061636365737300656E7465722075EC
:10009C007365722069643A0030207075626C696314
:1000AC000031207573657273206F6E6C790032208D
:1000BC006E6F6F6E65002A206261636B000080C0FA
:1000CC000600040054000A0060015A000B006A018B
:1000DC006400070075016F000B007C0176000B00BB
:1000EC0087018100090092018C000F009B01950093
:1000FC000F00AA0195000900B901A4000D00C2016E
:10010C00AD000800CF01BA000700D701C200020001
:10011C00DE01CA000000F894EE27ECBBF1E0FBBF57
:10012C00EBBFE5BF8DE0A2E0BB27ED938A95E9F725
:10013C0080E094E0A0E6ED930197E9F7ECECF0E0B9
:10014C0085919591009761F0A591B59105901590C9
:10015C00BF01F00105900D920197E1F7FB01F0CF83
:10016C00EFE5EDBFE4E0EEBFC0E6D1E00C94A201F8
:10017C00AA936A92A1E00E946302A8810E94800265
:10018C00F30131963F010C94DA02002406140704A3
:10019C001CF4F301319702C0E0E0F0E03F016A92F9
:1001AC00A1E00E946302A0E00E94800208950A92DE
:1001BC001A92FA926A937A938A939A93AA93BA931D
:1001CC00EA93FA93EFB7EA931A9310E0F201E13055
:1001DC00A0E0FA0799F46FD01E2F133221F4E2E05D
:1001EC00F0E02F010AC01A3211F4CFDF06C0F30180
:1001FC00EA0DFB1D1083A12FBBDF4EC0E330A0E046
:10020C00FA0799F458D01E2F133221F4E4E0F0E0F1
:10021C002F010AC01A3211F4B8DF06C0F301EC0D3D
:10022C00FD1D1083AAE2A4DF37C0E630A0E0FA0778
:10023C00D1F441D01E2F103319F4E4E1F0E011C0D9
:10024C00113319F4E7E0F0E00CC0123319F4E9E0D3
:10025C00F0E007C0133319F4EBE0F0E002C0E5E086
:10026C00F0E02F0119C0EC30A0E0FA07A9F423D07C
:10027C001E2F103319F4882499240BC0113321F448
:10028C00E1E0F0E04F0105C0123319F4E2E0F0E0D8
:10029C004F01E5E0F0E02F011991E991EFBFF991E1
:1002AC00E991B991A9919991899179916991F99073
:1002BC001990099018951A9310E0A898A99AAA9ADF
:1002CC0098990EC09B9902C011E30AC09C9902C078
:1002DC0014E306C09D9902C017E302C09E9B1AE26C
:1002EC00A89AA998AA9A99990EC09B9902C012E350
:1002FC000AC09C9902C015E306C09D9902C018E380
:10030C0002C09E9B10E3A89AA99AAA989A990EC02B
:10031C009B9902C013E30AC09C9902C016E306C065
:10032C009D9902C019E302C09E9B13E2A898A9985C
:10033C00AA98E12F19910895E0E0EABBEBBBE7BB6B
:10034C00E8BBE7E8E4BBE8E7E5BBE0E0E1BBE2BB28
:10035C00E3BFE2BFECBFEFBDEEBDEDBDECBDE7BD55
:10036C00E6BDEBBDEABDE9BDE8BDE2BDE5BDE4BD62
:10037C00E3BDE9BFEBB7E064EBBFE3E0E5BFE0E072
:10038C00E4BFE0E4EABFE0E0EAB9E0E8E8B9E0E0C5
:10039C00E0BFE6B9EDB9E6BFA0E1DDD07894F2019B
:1003AC00EF3FAFEFFA0709F466C0309741F4AF980E
:1003BC0095D0A0E6B1E0FAD0E1E0F0E05BC0E2302D
:1003CC00A0E0FA0751F48AD0AAE6B1E0EFD0E3E05E
:1003DC00F0E02F01662477244EC0E530A0E0FA0748
:1003EC0091F47CD0A5E7B1E0A5D0E6E0E4D0ACE791
:1003FC00B1E0DCD0A7E8B1E0E1D0A2E9B1E09AD05D
:10040C00E6E0F0E037C0E730A0E0FA0749F466D048
:10041C00E0E0D1D0ABE9B1E08DD0E8E0F0E02AC06B
:10042C00E930A0E0FA0749F459D0E0E0C4D0AAEAD8
:10043C00B1E080D0EAE0F0E01DC0EB30A0E0FA07BC
:10044C0091F44CD0A9EBB1E075D0E8E0B4D0A2ECBB
:10045C00B1E0ACD0AFECB1E0B1D0A7EDB1E06AD077
:10046C00ECE0F0E007C0E431A0E0FA0721F4AF9A29
:10047C00EFEFFFEF2F0193CFFFCFAA93EBB3EF700A
:10048C00AE2FE881E07FEA2BEBBB83E08A95F1F796
:10049C00DB9A83E08A95F1F7DB9883E08A95F1F794
:1004AC0083C0AA93A881E9DFE881E295E883A8815B
:1004BC00E4DF81E28A95F1F777C0AA93E881F0E056
:1004CC00E252FE4FE081A981AE0FEBDFE981E093B0
:1004DC00E201E881E093E30122960895A2E073D053
:1004EC00ACE0DFDFA1E06FD0E0E0E093E301E0936C
:1004FC00E2010895AA93A881AA3031F0E091E401B9
:10050C00A091E201AE1760F0E0E0EA93A091E30164
:10051C00AF5FA093E301D1DFA881AA3009F444C0F6
:10052C00E091E201EF5FE093E201D99AA881B9DF93
:10053C00D9983AC0BA93AA931A93A981BA81ED912A
:10054C00A983BA831E2FE03019F0A12FD3DFF5CF8A
:10055C00188123960895AA93EAB3E06FEABBD39A65
:10056C00D19AD29ADB98D998DA98E881E093E40191
:10057C00E058E093E001E881E054E093E101A4E16C
:10058C00B0E00E94F40224D023D022D0A0E275DF88
:10059C0083E48A95F1F7A8E284DFA4E082DFA5E882
:1005AC0080DFA6E07EDF9ADF21960895C3DFE0E0CE
:1005BC00EA93A1E082CFEA93A0E07FCFBBDFE8E033
:1005CC00EA93A1E07ACF6DDFA3E0B0E00C94F402E3
:1005DC00A0E353DF83E48A95F1F70895109639F080
:1005EC0084EF91E00197F1F7A8951197C9F7089559
:00000001FF
