:0C0000000C9417010C94F0020C9400000A
:10000C000C9400000C9400000C9400000C94000064
:10001C000C9400000C9400000C9400000C94000054
:10002C000C9400000C9400000C9400000C94000044
:10003C000C9400000C9400000C9400000C94000034
:10004C000C9400000C940000000000000200FFFF64
:10005C003030303000202020202020202020202074
:10006C00202020202000696E76616C696420696E06
:10007C007075740066756C6C00737563636573736F
:10008C0066756C006C6F6164696E67206461746185
:10009C002E2E2E006C6F6164656400757365722082
:1000AC0069643A0070617373776F72643A006368C5
:1000BC0065636B696E672E2E2E0077726F6E6720EC
:1000CC006964206F722070617373776F7264006360
:1000DC006865636B696E6720616363657373006148
:1000EC006363657373206772616E746564006E6F11
:1000FC002061636365737300312E6F70656E2032FF
:10010C002E61646420202020332E64656C20342EF4
:10011C006163202A2E65786300656E7465722075A4
:10012C007365722069643A0031207075626C696382
:10013C000032207573657273206F6E6C79003320FA
:10014C006E6F6E65002A206261636B0080C00100D7
:10015C002D4E414E00494E4600000800040054004C
:10016C00050060015C00110065016100050076016D
:10017C005C0005007B015C000E0080017200050034
:10018C008E0180000B00930185000B009E01850001
:10019C000B00A90185000E00B40172001000C20111
:1001AC0090000700D201A0000900D901A7000A00A5
:1001BC00E201B0000A00EC01B0000C00F601BA003C
:1001CC0015000202C60010001702DB000F00270208
:1001DC00EB000A003602FA0010004002DB000F00B0
:1001EC005002EB000A005F02FA00210069020401D0
:1001FC000F008A0225010F00990225010900A802AF
:10020C0034010D00B1023D010700BE024A01070096
:10021C00C5025101020034035801010039035A018F
:10022C000000F894EE27ECBBF1E0FBBFEBBFE5BFA1
:10023C008DE0A2E0BB27ED938A95E9F780E094E08E
:10024C00A0E6ED930197E9F7E6E6F1E0859195914B
:10025C00009761F0A591B59105901590BF01F00143
:10026C0005900D920197E1F7FB01F0CFEFE5EDBFA3
:10027C00E4E0EEBFC0E6D1E00C94E6030E94EF058B
:10028C000430E0E01E077CF40E94F605D09724F4BD
:10029C000E94F605DA970CF403C0E0E0F0E005C02C
:1002AC000F5F1F4FEDCFE1E0F0E01981088124963C
:1002BC0008950E94EF050430E0E01E076CF4F8018D
:1002CC00AC81BD81EA0FFB1F0F010E94FE05D0011E
:1002DC00EC930F5F1F4FEFCF198108810C94ED0544
:1002EC000E94EF050430E0E01E07ACF4F801AC818D
:1002FC00BD81AE0FBF1F0C900E94FE05E01541F0B2
:10030C000E940506E0E0F0E0198108810C94ED05EF
:10031C000F5F1F4FE7CFE1E0F0E0198108810C94EB
:10032C00ED051A930A9300E010E00A30E0E01E0796
:10033C00C4F40E9409060E94A8050E941906FA93AB
:10034C00EA93A0E6B1E0CCDF309731F40E941906B5
:10035C00DF0194DF309711F4580103C00F5F1F4F7A
:10036C00E4CF0E941F060E94A80531C11A930A937C
:10037C0000E010E00A30E0E01E073CF40E940906A1
:10038C000E94C1050F5F1F4FF5CF0E941F060E94F0
:10039C00C1051DC1AA93EEE0F0E0E615F70514F4D3
:1003AC000C94A6056A92A1E00E943905A8810E94CE
:1003BC005205F30131963F010C94A605E1E0F0E003
:1003CC006E167F060CF40895F30131973F016A9283
:1003DC00A1E00E943905A0E00E94520508951A93ED
:1003EC000A93F5010E942A06FA93EA93FE013496C9
:1003FC00FA93EA93A8E0B0E00E94DD05F50131968E
:10040C005F0100E010E00430E0E01E0754F4F50159
:10041C000E942A06E00FF11FA0E3A0830F5F1F4F7D
:10042C00F2CFA4DF198108810C94DB050E94BC0675
:10043C0078DF00E010E00A30E0E01E07E4F50E94EF
:10044C001906FA93EA93DE0116964ADF309781F18A
:10045C0098012930E0E03E07CCF4F9010E942A060D
:10046C00FA93EA93F90131960E942A06DF0121DF03
:10047C00F9010E942F06FA93EA93F90131960E9432
:10048C002F06DF0116DF2F5F3F4FE3CFECE2F3E0E7
:10049C00FA93EA93A6E7B1E00CDFECE2F3E0FA930F
:1004AC00EA93ABE7B1E005DFF50131975F0103C0DB
:1004BC000F5F1F4FC0CF5ADF0E94C1062C960895C4
:1004CC001A9310E0A898A99AAA9A98990EC09B9989
:1004DC0002C011E30AC09C9902C014E306C09D99A6
:1004EC0002C017E302C09E9B1AE2A89AA998AA9A86
:1004FC0099990EC09B9902C012E30AC09C9902C044
:10050C0015E306C09D9902C018E302C09E9B10E340
:10051C00A89AA99AAA989A990EC09B9902C013E31B
:10052C000AC09C9902C016E306C09D9902C019E34B
:10053C0002C09E9B13E2A898A998AA98E12F199142
:10054C0008951A930A93ECEDF2E0FA93EA93A4ED72
:10055C00B2E0C6DE309719F0E1E0F0E038C0ECED27
:10056C00F2E0FA93EA93A0EDB2E0BADE309749F0EC
:10057C00E0EEF2E0FA93EA93ACECB2E0B1DE309745
:10058C0009F403C0E2E0F0E022C000E010E00A3021
:10059C00E0E01E07D4F40E941906FA93EA93ACED3E
:1005AC00B2E09EDE309751F0F8010E942F06FA93CC
:1005BC00EA93A0EEB2E094DE309709F403C0E1E0D8
:1005CC00F0E005C00F5F1F4FE2CFE0E0F0E00991D3
:1005DC00199108950A921A92FA926A937A938A93CD
:1005EC009A93AA93BA93EA93FA93EFB7EA931A936E
:1005FC0010E0F201E130A0E0FA0781F40E94340629
:10060C0031F466247724E2E0F0E02F0106C01A32C0
:10061C0011F4D4DE02C00E943906C3C0E330A0E05E
:10062C00FA0781F40E94340631F466247724E4E05E
:10063C00F0E02F0106C01A3211F4C0DE02C00E9495
:10064C004006AFC0E930A0E0FA0729F539DF1E2FCC
:10065C00113319F4E2E1F0E01CC0123319F4EAE0B2
:10066C00F0E017C0133319F4EEE0F0E012C01433CD
:10067C0019F4E0E1F0E00DC01A3219F444245524C9
:10068C0009C0A0E8B1E00E9469050E940506E8E0F7
:10069C00F0E02F0186C0EB30A0E0FA0781F40E9455
:1006AC00340631F466247724ECE0F0E02F0106C028
:1006BC001A3211F483DE02C00E94390672C0ED308A
:1006CC00A0E0FA0731F50E943406E1F466247724A1
:1006DC00EAE0F0E0AE16BF063CF4ECEDF2E0A8E088
:1006EC000E9497067CDE0AC00E944605AEE8B1E087
:1006FC000E946905A0EDB7E00E948606E8E0F0E0F4
:10070C002F0106C01A3211F459DE02C00E944006B5
:10071C0048C0EF30A0E0FA07B1F40E94340661F44F
:10072C0066247724ECEDF2E0A8E00E9497067EDECA
:10073C00E8E0F0E02F0106C01A3211F43FDE02C0EF
:10074C000E9439062EC0E131A0E0FA0751F5B8DE5F
:10075C001E2F113339F4E1E0F0E00E944806A3E9C2
:10076C00B1E018C0123339F4E2E0F0E00E94480620
:10077C00AEE9B1E00FC0133339F4E3E0F0E00E94CE
:10078C004806A9EAB1E006C01A3241F00E944605BB
:10079C00A4EBB1E00E9469050E940506E8E0F0E0D8
:1007AC002F011991E991EFBFF991E991B991A991B3
:1007BC009991899179916991F9901990099018956D
:1007CC00E0E0EABBEBBBE7BBE8BBE7E8E4BBE8E790
:1007DC00E5BBE0E0E1BBE2BBE3BFE2BFECBFEFBDDA
:1007EC00EEBDEDBDECBDE7BDE6BDEBBDEABDE9BDC3
:1007FC00E8BDE2BDE5BDE4BDE3BDE9BFEBB7E06438
:10080C00EBBFE3E0E5BFE0E0E4BFE0E4EABFE0E03B
:10081C00EAB9E0E8E8B9E0E0E0BFE6B9EDB9E6BF77
:10082C00A0E10E947A057894E1E3E093D002E0E342
:10083C00E093D102E093D202E093D302E1E3E093A0
:10084C00CC02E093CD02E093CE02E093CF02E0E342
:10085C00E093D402E093D502E093D602E093D70262
:10086C00E093D802E093D902E093DA02E093DB0242
:10087C00F201EF3FAFEFFA0709F4D3C0309799F4C8
:10088C00AF98FED0A2ECB1E01ED14BDDF9D0A2EDB9
:10089C00B1E019D1F5D0A9EDB1E00E944D06E1E02F
:1008AC00F0E02F01BEC0E230A0E0FA0749F4E8D036
:1008BC00A2EEB1E00E944D06E3E0F0E02F01B1C0E2
:1008CC00EC30A0E0FA0749F4DBD0ACEEB1E00E94CA
:1008DC004D06EDE0F0E02F01A4C0E430A0E0FA07F3
:1008EC00C9F4CED0A6EFB1E0EED02BDE309719F4E0
:1008FC00E5E0F0E00DC0E130A0E0FA0719F4E6E025
:10090C00F0E006C0E230A0E0FA0719F4E8E0F0E00D
:10091C002F0187C0E530A0E0FA0741F4B1D0A2E086
:10092C00B2E00E945706ACEDB5E077C0E630A0E02F
:10093C00FA0789F4A5D0A7E1B2E00E945E063CF468
:10094C00A7E2B2E0C0D0E2E1F0E02F0103C0A6E3E1
:10095C00B2E0B9D066C0E730A0E0FA0799F490D0C5
:10096C00A0E4B2E00E945E063CF4A0E5B2E0ABD09D
:10097C00E2E1F0E02F0103C0AFE5B2E0A4D0A0EDBE
:10098C00B7E04BC0E830A0E0FA0741F479D0A9E613
:10099C00B2E099D0E9E0F0E02F0143C0EA30A0E0EA
:1009AC00FA0749F40E946B06AAE8B2E08CD0EBE09F
:1009BC00F0E02F0136C0EE30A0E0FA0749F40E94B7
:1009CC006B06A9E9B2E07FD0EFE0F0E02F0129C07F
:1009DC00E031A0E0FA07D1F453D0A8EAB2E073D02A
:1009EC00E8E0EA93A0E03FD0A1EBB2E00E9457060A
:1009FC00AEEBB2E068D0E8E0EA93A1E034D0A5EC2D
:100A0C00B2E061D0E1E1F0E02F010BC0E231A0E0F7
:100A1C00FA0739F4AF9AA8EBBBE00E94860644248F
:100A2C00552426CFFFCFAA93EBB3EF70AE2FE881FE
:100A3C00E07FEA2BEBBB83E08A95F1F7DB9A83E04E
:100A4C008A95F1F7DB9883E08A95F1F779C0AA9340
:100A5C00A881E9DFE881E295E883A881E4DF81E2FF
:100A6C008A95F1F76DC0AA93E881F0E0EC5CFC4F3D
:100A7C00E081A981AE0FEBDFD980C8802296089562
:100A8C00A2E00E947206ACE0E2DFA1E00E947206D6
:100A9C00E0E0CE2EDE2E0895AA93A881AA3021F094
:100AAC00E0913803DE1648F0E0E0EA93C394AC2DF5
:100ABC00DADFA881AA3009F443C0D394D99AA8816B
:100ACC00C6DFD9983DC0BA93AA931A93A981BA816B
:100ADC00ED91A983BA831E2FE03019F0A12FDCDF32
:100AEC00F5CF188123960895AA93EAB3E06FEABB79
:100AFC00D39AD19AD29ADB98D998DA98E881E09374
:100B0C003803E058E0933603E881E054E093370370
:100B1C00A4E1B0E00E9486060E9478060E94780646
:100B2C000E947806A0E27FDF83E48A95F1F7A8E2C1
:100B3C008EDFA4E08CDFA5E88ADFA6E088DFA0DFEB
:100B4C0021960895BA93AA930E94BC06088519852C
:100B5C002E813F810E947F0669F01F930F930F5FD8
:100B6C001F4FD9012F5F3F4F0E949F06AF91BF913E
:100B7C00EC93F0CF18C0BA93AA930E94BC060E81D6
:100B8C001F81288539850E947F0669F01F930F937A
:100B9C000F5F1F4FD9012F5F3F4FEC91AF91BF916A
:100BAC000E94AB06F0CF0E94C1062A960895BA9314
:100BBC00AA9399818881009641F0BD81AC81FB811B
:100BCC00EA8161916D930197E1F7FD81EC812696A5
:100BDC000895BA93AA931A930A9300E010E008952B
:100BEC00F801AA81BB81AE0FBF1FAC91BB27089542
:100BFC00F801AA81BB81AE0FBF1FEC910895A8EE3E
:100C0C00B3E00C948606F8010E949006DF01EC51CB
:100C1C00FD4FFA93EA93FD01EE5FFF4FFA93EA93CF
:100C2C00A8E0B0E00895F8010E949006EC51FD4F49
:100C3C000895E8E0F0E0FA93EA93E0E0F0E0FA934C
:100C4C00EA93A2E0B0E008950E949006EC51FD4FAB
:100C5C0008950E949006E851FD4F08950E94660287
:100C6C001E2F13320895F301E452FD4F1083A12F70
:100C7C000C94D001E0EEF2E0E60DF71D1083AAE231
:100C8C000C94D0014F010E94BC010C9446050E94AB
:100C9C006905E0E0EA93A1E00E9439056624772417
:100CAC0008950E946905E0E0EA93A1E00C943905EF
:100CBC000E946905ACEDB5E00E9486060E944605CF
:100CCC00E2E0F0E08E169F0608950E944605E0E0F3
:100CDC00EA93A0E00C9439050E942D05A3E0B0E046
:100CEC000C948606A0E30E94190583E48A95F1F71B
:100CFC000895EC81FD813197EC83FD833196089545
:100D0C00109639F084EF91E00197F1F7A8951197BF
:100D1C00C9F70895EE0FFF1FEE0FFF1FEE0FFF1F19
:100D2C000895BB27EA0FFB1F02900A921197E1F777
:100D3C000895E199FECFFF93FFB7F894AEBBBFBB0C
:100D4C00E09AEDB3FFBFFF910895E19B02C0A89517
:100D5C00FCCF9FB7F894AEBBBFBBE09A8DB3E8173E
:100D6C0019F0EDBBE29AE19A9FBF08953A932A934A
:100D7C001A930A9308953B812A8119810881089559
:00000001FF
