:040000000C943C0020
:100004000C9400000C9400000C9400000C9400006C
:100014000C9400000C9400000C9400000C9400005C
:100024000C9469000C9400000C9400000C940000E3
:100034000C9400000C9400000C9400000C9400003C
:100044000C9400000C9400000C9400000C9400002C
:10005400000080C001002D4E414E00494E46000074
:100064000200040054000200600156000100640113
:1000740058000000F894EE27ECBBF1E0FBBFEBBFA7
:10008400E5BF8DE0A2E0BB27ED938A95E9F780E018
:1000940094E0A0E6ED930197E9F7E4E6F0E08591BA
:1000A4009591009761F0A591B59105901590BF01C8
:1000B400F00105900D920197E1F7FB01F0CFEFE518
:1000C400EDBFE4E0EEBFC0E6D1E00C947500EA9326
:1000D400FA93EFB7EA93F20131962F01E991EFBF5A
:1000E400F991E9911895E0E0EABBEBBBE7BBE8BB0B
:1000F400E4BBE5BBE1BBE2BBE5E0E3BFE0E0E2BFBC
:10010400ECBFEFBDE6E0EEBDE0E0EDBDECBDE7BD6C
:10011400E6BDEBBDEABDE9BDE8BDE2BDE5BDE4BDBC
:10012400E3BDE1E0E9BFE0E0E5BFE4BFEAB9E0E850
:10013400E8B9E0E0E0BFE6B9EDB9E6BFA8E076D003
:100144007894E4E0F0E0E415F50579F423973CD0E5
:10015400ECB5F0E0FA93EA93DE0112960E944501B1
:10016400DE0153D0442455242396EBCFFFCFAA932A
:10017400EBB3EF70AE2FE881E07FEA2BEBBB82E0BC
:100184008A95F1F7DA9A82E08A95F1F7DA9882E0B3
:100194008A95F1F776C0AA93A881E9DFE881E29510
:1001A400E883A881E4DF81E18A95F1F76AC0AA9324
:1001B400E881F0E0E05AFE4FE081A981AE0FEBDF69
:1001C4007980688022960895A2E00E947301ACE0D1
:1001D400E2DFA1E00E947301E0E06E2E7E2E08951E
:1001E400AA93A881AA3011F0791448F0E0E0EA93C8
:1001F4006394A62DDCDFA881AA3009F442C073946D
:10020400C09AA881C8DFC0983CC0BA93AA931A9335
:10021400A981BA81ED91A983BA831E2FE03019F028
:10022400A12FDEDFF5CF188123960895AA93EAB3B0
:10023400E06FEABBD29AB89AD19ADA98C098D99862
:100244009880E881E058E0936201E881E054E0930B
:100254006301A4E1B0E00E9480010E9479010E9440
:1002640079010E947901A0E282DF81E28A95F1F7A7
:10027400A8E291DFA4E08FDFA5E88DDFA6E08BDFA5
:10028400A3DF21960895BA93AA93A991B991E9910C
:10029400F99130962AF4E095F09531966DE26D93DC
:1002A400E89480E197E20DD088EE93E00AD084E6EA
:1002B400992707D08AE005D06E2F10D066276C935B
:1002C40008956627E817F90720F06395E81BF90BF2
:1002D400C9F7662311F416F008956894605D6D9370
:1002E40008950E94CD00A3E0B0E00C948001A0E347
:1002F4000E94B90081E28A95F1F70895109639F0C9
:100304008AEF90E00197F1F7A8951197C9F708953E
:00000001FF
