:0E0000000C943D000C9400000C9400000C9435
:10000E0000000C9400000C9400000C9400000C9462
:10001E0000000C9400000C9400000C9400000C9452
:10002E0000000C9400000C9400000C9400000C9442
:10003E0000000C9400000C9400000C9400000C9432
:10004E0000000C94000080A0C0E0300031003200AF
:10005E003300020060015800020062015A000200E3
:10006E0064015C00020066015E000000F894EE2759
:10007E00ECBBF1E0FBBFEBBFE5BF8DE0A2E0BB2721
:10008E00ED938A95E9F780E094E0A0E6ED93019771
:10009E00E9F7E0E6F0E085919591009761F0A59182
:1000AE00B59105901590BF01F00105900D92019745
:1000BE00E1F7FB01F0CFEFE5EDBFE4E0EEBFC0E608
:1000CE00D1E00C946A00E0E0EABBEBBBE0EFE7BBEB
:1000DE00EFE0E8BBE0E0E4BBE5BBE1BBE2BBE3BFC6
:1000EE00E2BFECBFEFBDEEBDEDBDECBDE7BDE6BDC5
:1000FE00EBBDEABDE9BDE8BDE2BDE5BDE4BDE3BDD6
:10010E00E9BFE5BFE4BFEAB9E0E8E8B9E0E0E0BF87
:10011E00E6B9EDB9E6BFA0E1CED02297E0E0E883E4
:10012E00E9839AD0E4E0F0E0E883F983A881B9810D
:10013E0017970CF061C02497E0E0E883E983EA8327
:10014E00EB83EC81FD81E430A0E0FA0721F4C49842
:10015E00C59AC69A0FC0E530A0E0FA0721F4C598FB
:10016E00C49AC69A07C0E630A0E0FA0719F4C698FA
:10017E00C49AC59AC5D0F4F3E0E0EA83EB83AA8172
:10018E00BB8114976CF5EA81FB81309731F4B099FD
:10019E0003C0A0E6B1E07ED01DC0E130A0E0FA07BA
:1001AE0031F4B19903C0A2E6B1E074D013C0E230CD
:1001BE00A0E0FA0731F4B29903C0A4E6B1E06AD028
:1001CE0009C0E330A0E0FA0729F4B39903C0A6E60C
:1001DE00B1E060D0EA81FB813196EA83FB83CFCF19
:1001EE00E0E0E883E9838CD0F4F32496E881F9818A
:1001FE003196E883F9839ACF22968FCFFFCFAA93B9
:10020E00EBB3EF70AE2FE881E07FEA2BEBBB88E01B
:10021E008A95F1F7DA9A84E18A95F1F7DA9884E112
:10022E008A95F1F76BC0AA93A881E9DFE881E29580
:10023E00E883A881E4DF88EC8A95F1F75FC0AA9382
:10024E00E881F0E0EC5AFF4FE491A981AE0FEBDFAD
:10025E005980488022960895A2E05CD0ACE0E3DF9E
:10026E00A1E058D0E0E04E2E5E2E0895AA93A8810C
:10027E00AA3011F0571440F0E0E0EA934394A42D15
:10028E00DEDFA881AA30D1F15394D89AA881CBDFB2
:10029E00D89834C0BA93AA931A93A981BA81ED91D2
:1002AE00A983BA831E2FE03019F0A12FDFDFF5CF1F
:1002BE00188123960895AA93EAB3E06FEABBD29A07
:1002CE00D09AD19ADA98D898D9987880A4E1B0E0EB
:1002DE000E949D0124D023D022D0A0E290DF8CE298
:1002EE0091E00197F1F7A4E29EDFA9E09CDFA0E286
:1002FE009ADFACE098DFA6E096DFAEDF2196089598
:10030E00A881B9811196A883B9831197A838E3E122
:10031E00BE07089588DFA3E0B0E00C949D01A0E332
:10032E006EDF8CE291E00197F1F70895109639F0A7
:10033E0088EB9BE00197F1F7A8951197C9F70895FF
:00000001FF
